:100000004EC0000069C0000067C0000065C000006D
:1000100063C0000061C000005FC000005DC0000060
:100020005BC0000059C0000057C0000055C0000070
:1000300053C000009DC100004FC000004DC0000033
:100040004BC0000049C0000047C0000045C0000090
:1000500043C0000041C000003FC000003DC00000A0
:100060003BC0000039C0000037C0000035C00000B0
:1000700033C0000031C000002FC000002DC00000C0
:100080002BC0000029C0000027C0000056025A0201
:10009000680279028102910297029B02E502112413
:1000A0001FBECFEFD0E4DEBFCDBF11E0A0E0B1E0D6
:1000B000EEE7F7E000E00BBF02C007900D92A83614
:1000C000B107D9F721E0A8E6B1E001C01D92A93936
:1000D000B207E1F791D251C393CF181619065CF01D
:1000E0000895000021503109E1F74F5F5F4F8417F9
:1000F000950719F4089540E050E027E033E0F1CF90
:100100005E9888B95F9A00005F9882E090E0E5CF42
:10011000089581E0F5CF0895813118F48158F0CF2A
:1001200008958155EDCF089584E690E0D6DF88E309
:10013000E7DF86E0E5DF8FE0E3DF81E0E1DF8AE013
:1001400090E0CBCF08955E9A88B95F9A00005F98DF
:1001500081E090E0C2CF08950F931F93CF93DF9378
:100160008B01883068F4880F880F880F805CC8DFA7
:10017000E801085F1F4F8991E6DFC017D107D9F763
:1001800080E8BEDFDF91CF911F910F9108950F930B
:100190001F93CF93DF93182FEB01BBDF8881882358
:1001A00051F001E0010F812FB7DF8991CCDF102FD3
:1001B00088818111F6CFDF91CF911F910F91089522
:1001C0001F93CF93DF93FB019081992351F0EB01B3
:1001D00011E0180FA1DF8991B6DF812F988191116D
:1001E000F7CFDF91CF911F910895809197018230D1
:1001F00019F128F4882341F08130B1F02BC083300D
:10020000F1F0843021F126C0009906C0019B04C0A2
:1002100081E0809397010895009B27C0019925C034
:1002200083E0809397010895009B1FC0009B1DC031
:1002300082E08093970116C0109297010895019B68
:1002400014C0019B12C084E08093970107C01092F4
:1002500097010895823031F0843039F481E1809340
:100260002001089581E080932001089580919801F4
:10027000823019F128F4882341F08130B1F02BC08D
:100280008330F1F0843021F126C0189906C0199B03
:1002900004C081E0809398010895189B27C01999A4
:1002A00025C083E0809398010895189B1FC0189B78
:1002B0001DC082E08093980116C0109298010895A5
:1002C000199B14C0199B12C084E08093980107C049
:1002D000109298010895823031F0843039F480E230
:1002E00080932101089580E18093210108958091F8
:1002F0009201882311F0811116C0009B06C0019B5A
:1003000004C0189B02C019990EC00EDF8091200115
:1003100003DF8091930190E016DF80912101FCDEE4
:1003200083E090E010CF08958BE0809381008FE010
:1003300090E0909389008093880082E080936F0022
:1003400010928500109284008091250190912601E1
:10035000A0912701B091280180938A0190938B018D
:10036000A0938C01B0938D018FB780688FBF0895E3
:100370001F920F920FB60F9211248F939F93AF93FA
:10038000BF9380918A0190918B01A0918C01B091D3
:100390008D010197A109B10980938A0190938B0186
:1003A000A0938C01B0938D01892B8A2B8B2B99F410
:1003B00081E080938E018091250190912601A0918A
:1003C0002701B091280180938A0190938B01A0931B
:1003D0008C01B0938D01BF91AF919F918F910F9040
:1003E0000FBE0F901F901895609325017093260102
:1003F000809327019093280160938A0170938B0169
:1004000080938C0190938D0108958EDE82DE6FE2E1
:1004100071E082E1BCDE8DE17FDE86E190E094D187
:10042000853118F48093940102C010929401609178
:10043000940170E086E190E09DD18091940190E07C
:10044000C09681DE8FE168DE68E171E080E090E0D7
:1004500083DE60E171E081E090E07EDE68E071E0E3
:1004600082E090E079DE60E071E083E090E074DEAD
:1004700087E052DE80E090E066DE81E090E063DEBF
:1004800082E090E060DE83E090E05DDE8091230119
:1004900043CE0895E09191018E2F90E0893091052F
:1004A00008F051C0FC01EA5BFF4F45C181E0809339
:1004B00091015EC09091890180912401981708F400
:1004C00057C082E08093910124DE109289013BC0E5
:1004D000029908C080918901843648F483E08093B2
:1004E0009101089580918901843608F451C080B14A
:1004F0004FC0029B80C0029B7EC084E0809391012C
:100500000895009906C0029B04C085E08093910184
:100510000895029970C0009B6EC087E0809391019E
:100520000895009B68C086E08093910141C084E0FB
:10053000809391010895029B04C088E0809391010B
:1005400044C080B1089580919101823009F130F466
:10055000882351F0813009F04EC00AC0863041F145
:10056000883009F048C031C081E08093910108953E
:100570006BE371E081E090E023DE66E471E082E10C
:1005800090E01EDE809189018F5F8093890108953C
:1005900062E571E081E090E013DE61E671E082E106
:1005A00090E00EDE809189018F5F8093890108952C
:1005B00080912301893020F48F5F8093230103C051
:1005C00087E08093230121CF089581E080938F01FC
:1005D00080912301883039F0893049F0873051F417
:1005E0001092930107C081E08093930103C082E0E1
:1005F000809393017CCE0895CF93DF9300D000D0F9
:1006000000D0CDB7DEB711B88FEF82B984B915B875
:1006100087B988B980EC8AB98FE78BB985DD86E028
:10062000E9E2F1E0DE01119601900D928A95E1F781
:10063000EEE7F1E0108281E090E0A0E0B0E081839D
:100640009283A383B483158216821782108625EFC6
:1006500030E032872187E3E7F1E0108281839283E3
:10066000A383B483158216821782108627E731E0B0
:1006700032872187E8E6F1E0108281839283A383A9
:10068000B483158216821782108686E391E09287E2
:1006900081876091220170E080E090E0A5DE44DE79
:1006A000109291017E0187E0E80EF11C80918F018C
:1006B000811139C0EFDE37C0D6010D911D916D015A
:1006C000F801458156816781708581819281A3817E
:1006D000B481481759076A077B0779F48081018440
:1006E000F285E02D082E000C990B0995D8018C930A
:1006F000F8011582168217821086F801858196818D
:10070000A781B0850196A11DB11D85839683A7831E
:10071000B087CE14DF0481F680918E018823E1F347
:1007200010928E01C3CF80918F018130A9F7CE0145
:1007300001966C01C1CFEE0FFF1F0024001C0BBE01
:100740000790F691E02D0994F999FECF92BD81BDF5
:10075000F89A992780B50895262FF999FECF1FBAE8
:1007600092BD81BD20BD0FB6F894FA9AF99A0FBEDA
:0E07700001960895F1DF272FF0CFF894FFCF08
:10077E000000040A04040A000000040A1F0A000014
:10078E000000000A04040A000E0E04041F040A0AE4
:10079E00011064070A010000007E01730168016800
:1007AE0069676873636F72653A200057454C434F13
:1007BE004D4520544F00444F444745205155494321
:1007CE004B00505245535320535441525420544FD2
:0807DE0000424547494E0000AE
:00000001FF
